:100000000C946A000C9487000C9487000C94870071
:100010000C9487000C9487000C9487000C94870044
:100020000C94DC000C9487000C9487000C948700DF
:100030000C9487000C9487000C94C0000C948700EB
:100040000C9487000C9487000C9487000C94870014
:100050000C948700404346494C4F5255585B5E60B4
:100060006366686A6D6F7173757678797B7C7D7E67
:100070007E7F7F7F7F7F7F7F7E7E7D7C7B797876B2
:100080007573716F6D6A686663605E5B5855524F39
:100090004C494643403C393633302D2A2724211F12
:1000A0001C19171512100E0C0A0907060403020189
:1000B000010000000000000001010203040607091E
:1000C0000A0C0E10121517191C1F2124272A2D3077
:1000D0003336393C11241FBECFE5D4E0DEBFCDBF9F
:1000E00010E0A0E6B0E0E8E2F2E002C005900D9278
:1000F000A638B107D9F710E0A6E8B0E001C01D921C
:10010000AC38B107E1F70E94A2000C9412010C94E4
:1001100000001ABA80E281BB10BC87E189B980B5C2
:10012000866880BD8AB188618AB93E9A86B188683E
:1001300086B93D9A84E089BF81E88FBD81E08EBD9C
:10014000789408950E94890020E034E241E0109202
:100150008B0087B190918B00807E892B87B9369A6E
:10016000C9010197F1F740938B0087B190918B0003
:10017000807E892B87B9369AC9010197F1F7E7CFBD
:100180001F920F920FB60F9211248F9380918B00C4
:10019000882319F485B180938A0080918B00813087
:1001A00029F485B18695825E809360008F910F90CF
:1001B0000FBE0F901F9018951F920F920FB60F92BF
:1001C00011248F939F93EF93FF9380916000E091B0
:1001D0008600F0918700E80FF11DF0938700E0930F
:1001E00086003296F695E795F695E795F0E0EF777D
:1001F000F070F0938900E0938800EC5AFF4FE4918F
:1002000080918A008E9FC0011124892F90E09BBDB0
:100210008ABDFF91EF919F918F910F900FBE0F902C
:080220001F901895F894FFCF20
:1002280032546865206672657175656E63792069F8
:100238007320002E0A0054686520766F6C756D6512
:0602480020697320000094
:00000001FF
